:020000040000fa
:10000000f097012045dd04016d9205017192050113
:10001000799205017d9205018192050100000000a1
:10002000000000000000000000000000a16e0301bd
:100030007592050100000000fd6e0301656f03016c
:10004000314304015b5d04015b5d0401c9b403013c
:100050005b5d04015b5d04015b5d04015b5d0401ac
:100060005b5d04015b5d04015b5d04015b5d04019c
:100070005b5d04015b5d04015b5d04015b5d04018c
:100080005b5d04015b5d0401157203015b5d0401ae
:100090005b5d04015b5d04015b5d04015b5d04016c
:1000a0005b5d04015b5d04015b5d04015b5d04015c
:1000b0005b5d04015b5d04015b5d04010d1b0501db
:1000c00065de04015b5d04015b5d04015b5d0401b1
:1000d0005b5d04015b5d0401cd1b05015b5d0401fb
:020000040000fa
:020000040004f6
:045f8800ffff000017
:020000040000fa
:020000040004f6
:045f8c0000e00ec45f
:020000040000fa
:020000040004f6
:045f900038fc745f06
:020000040000fa
:020000040004f6
:045f94003844121467
:020000040000fa
:020000040004f6
:045f98000300007191
:020000040000fa
:020000040004f6
:045f9c0002000000ff
:020000040000fa
:020000040004f6
:045fbc0000000010d1
:020000040000fa
:020000040100f9
:10400000001001004c4201200000000000000000f0
:10401000011011001c000020000000000100000041
:1040200007203200580100200000000000000000be
:1040300006203200580100200000000000000000af
:1040400005203200580100200000000000000000a0
:104050000420320058010020000000000000000091
:104060000320320058010020000000000000000082
:104070000220320058010020000000000000000073
:104080000120320058010020000000000000000064
:104090000020320058010020000000000000000055
:1040a00003441600843701200000000000000000d7
:1040b000014416000037012000000000000000004d
:1040c00005441600cc340120000000000000000070
:1040d00000441100882b01200000000000000000b7
:1040e000004308001442012000000000000000000e
:1040f00001430100913e012000000000000000008b
:1041000002430100943e0120000000000000000076
:104110000a4001008a4e002000000000000000005c
:1041200000400400f408002000000000000000002f
:10413000094001006d0800200000000000000000a0
:1041400008402000a0160020000000000100000030
:1041500007403002401d0020000000000100000068
:10416000064002009008002000000000000000004f
:1041700005403800c01600200000000002000000ca
:10418000044003008a080020000000000000000036
:104190000340f000f02100200000000003000000b8
:1041a0000240c800c80a0020000000000100000012
:1041b0000140600028360020653503010000000042
:1041c000f89605010900004cf8b500bff8bc08bc22
:1041d0009e4670479d4c0501f8b500bff8bc08bc71
:0841e0009e467047794c050171
:020000040000fa
:020000040100f9
:1041e800034b93f85201a0f1aa0358425841704773
:1041f800c04e0020f0b50b4ad2f8e830d2f8ec20d7
:104208001978c90707d5d0e90067d3e90245af4255
:1042180008bfa64203d010339a42f1d800231846ab
:10422800f0bd00bfc04e0020084ad2f8e830d2f8ee
:10423800ec201978c90702d55988814203d0103378
:104248009a42f6d800231846704700bfc04e002097
:10425800f0b50e4b93f8e570d3f8e05000231e46f6
:10426800dcb2bc4200d9f0bd05ebc40292f803e011
:10427800bef1000f08d035f83440844204d1947858
:104288008c4204bfd67056600133e9e7c04e002067
:10429800034b93f84c00a0f1410358425841704732
:1042a800c04e0020034b93f83c00a0f1d6035842bf
:1042b80058417047c04e0020034b93f8c400a0f14a
:1042c8001303584258417047c04e0020034b93f8df
:1042d8007801a0f1b703584258417047c04e0020fa
:1042e800437800f1080210b513f008040a611dbff5
:1042f8000a6000f110020a610c6013f010021fbf7f
:104308000a694a6008320a6108bf4a6013f001026c
:104318001fbf0a698a6001320a6108bf8a6013f008
:1043280004031dbf0b69cb601a78cb601ebf013236
:1043380003eb42030b610b69181a087510bd044b97
:1043480093f834004000ff2828bfff20c0b2704710
:1043580040080020084ad2f80c3292f8082203ebf1
:104368008212934201d301207047197809b940336a
:10437800f7e70020704700bfc04e0020034b93f8ba
:104388000002a0f1da03584258417047c04e00209d
:10439800014bfd221a707047c04e0020034b93f862
:1043a800b900a0f1e603584258417047c04e0020ba
:1043b800034b93f87c02023818bf0120704700bff6
:1043c800c04e0020034b93f87001a0f18e035842b1
:1043d80058417047c04e00200c4b30b12830d3f8fc
:1043e800f820904204d300207047d3f8f400f6e791
:1043f800037803f0fb03012b05d1837edb0702d48e
:1044080083888b42f0d12830ebe700bfc04e0020f4
:10441800084ad2f8f430c01a074bc0104343d2f808
:10442800fc0000ebc3008079430714bf00f00700cd
:1044380007207047c04e0020cdcccccc10b50c4a1c
:10444800d2f8f430d2f8f8101a78062a09d05c7835
:10445800022c06d102f0fb02012a02d19a8882427c
:1044680003d028339942efd80023184610bd00bf67
:10447800c04e00204bf6dd734343c3f30333094ab0
:1044880032f8331030ea010103d102ebc3035b6851
:104498000bb9002070479a88824201d05b6af7e71f
:1044a8000120704774520020024b662283f80023d3
:1044b800704700bfc04e002073b50d4b002293f823
:1044c800d442d3f8d0520123d1b2a14206d300205e
:1044d80061f3070063f30f2002b070bd013205ebf2
:1044e800c20656f8086c8642f1d05b00dbb2ebe7f7
:1044f800c04e00202de9f04f074685b000209946b0
:1045080088461646254cfff7d7ff94f8d432adf805
:104518000c00c0b2834234d904f1f40191e80a4096
:104528009df80d20dff878c001930d466fea020a66
:104538002b78062ba5eb01030ad095f801b0bbf147
:10454800020f05d0b5f804b0c34501d0b3451bd15f
:10455800db100cfb03f30eebc30393f807b00bea75
:104568000a0b83f807b0019b28359d42e0d3d4f8a5
:10457800d02200b202ebc00342f830709e8083f86c
:10458800069005b0bde8f08fdb100cfb03f30eebd3
:10459800c30393f807b042ea0b0be2e7c04e0020d2
:1045a800cdcccccc07b5fff787ff074b93f8d422c7
:1045b800c0b2824282bfd3f8d032002243f8302002
:1045c80003b05df804fb00bfc04e0020054b93f814
:1045d8001002482804d0a0f14a03584258417047b5
:1045e80001207047c04e0020034b187ca0f119032e
:1045f80058425841704700bfc04e0020034bd3f8c3
:104608008002b0fa80f04009704700bfc04e002019
:1046180010b5094ad2f89c32d2f8a0221c782cb1e5
:104628009c7a8c4202d19c88844203d018339a42e7
:10463800f4d80023184610bdc04e002010b504461b
:10464800006948b1636923b15a68944204bf0022e3
:104658005a60c368103098470023237010bd436820
:1046680010b4c3b11a69b2b15c69a04213d151b197
:1046780014205074002018701046d36800f8101fda
:104688005df8044b1847107928b95878196161f317
:10469800c3005870f0e75df8044b7047034b93f87c
:1046a800a402b0fa80f04009704700bfc04e002055
:1046b8000c4a10b5d2f8a832b2f8ac22c2ebc2024a
:1046c8001a441c7914f0010f06d0c4f300148c426c
:1046d80002d11c88844203d007339342f1d30023cc
:1046e800184610bdc04e002008b5fff7e1ff18b10d
:1046f80003796ff30003037108bd2de9f8430746fa
:104708000e4690469946fff7d3ff70b183794b4523
:1047180009d31b4b93f8ae22012393404371a0f8b1
:10472800028080f80690bde8f883154db5f8ac1204
:10473800d5f8a832c1ebc1015c18014618460379c7
:10474800db0709d5c9b142794b799a4238bf01468e
:104758000730a042f3d30846037943f001030371fd
:1047680095f8ae220780012393404371037903f043
:10477800f10366f304130371d1e70146e8e700bfcc
:10478800c04e002030b50a4b93f87043d3f8743309
:104798000021cab2a24202d3ff22104630bd1d78c2
:1047a80015b15d788542f8d001311c33f1e700bfbf
:1047b800c04e002008b5fff7e5ff084b93f87023bb
:1047c800824281bf00b2d3f87433c0ebc00003eb60
:1047d80080008cbf0230002008bd00bfc04e002002
:1047e800034b93f88001a0f19a035842584170474f
:1047f800c04e0020024b002283f8cd22704700bf34
:10480800c04e0020034b93f8d802a0f13103584260
:1048180058417047c04e0020024a536823ea0000fe
:1048280050607047c04e0020024b986eb0fa80f07e
:1048380040097047c04e0020034b93f87803b0fa44
:1048480080f04009704700bfc04e002008485f2331
:1048580080f81032074bc0f83032412380f82032fc
:10486800002380f8283200f506702cf07bba00bfd0
:10487800c04e00208158000173b5064602a860e9c1
:104888000223fff7b7fc0446b8b9184dd5f8f04035
:10489800d5f8e8309c4221d3d5f8ec309c421dd2a3
:1048a800d5f8f030d5f8ec2010339a42c5f8f0303e
:1048b8009cbfd5f8e830c5f8f0302378668043f01f
:1048c80001032370dde90023c4e9022323789df85e
:1048d800182062f34103237002b070bd044b43f209
:1048e80014121a804bf078f9dae700bfc04e0020a6
:1048f8009036002037b5164a164cd2f8f430d2f864
:10490800fc50c31adb105c430378052b09d101a9bd
:104918002c2035f07bfc019bdb0a45f8343003b0d2
:1049280030bd4378022b05d1026a4ff47a735343a2
:104938000193f0e70df10301142035f067fc9df8b1
:10494800033043f6982203fb02220192e3e700bffb
:10495800c04e0020cdccccccf0b5204a85b0d36e6b
:1049680092f8707000244ff4a072064602fb0732da
:104978008df807402546934214d335b302a940f277
:10498800311035f043fc04ab3344052f13f8093cd0
:1049980013d89c422cbf00240124b4b12e702846a1
:1049a80005b0f0bd197831b1b14201d10134e4b29a
:1049b80003f5a073dfe71d46fae713fb07f3b4eb33
:1049c800930fb4bf01240024e7e704a9012301f8e9
:1049d800093d46203bf058fe0025e0e7c04e002088
:1049e80008b5fff7b9ff0023d0b100f11a02c0f8eb
:1049f8009c2090f80721c0f8c43080f8c030c0f877
:104a0800c830c0f8cc3080f8bc3080f8bd3063f3d3
:104a18004102044b80f807215b8fa0f800318030f9
:104a280008bd00bf40080020742908b501d900203e
:104a380008bdfff791ff0028f9d000f10c03c0f87a
:104a48008430803008bd2de9d043154b0f46d3f88c
:104a58000c4293f80812064604eb811144b9114b35
:104a68004ff441521a804bf0a5f82046bde8d08398
:104a780056ea07030cd0234600248b42f5d2187857
:104a880058b13ab1d3e902894f4508bf464505d127
:104a98000024eae7d3e90689f6e71c464033ece749
:104aa800c04e002090360020034b00221a605a6046
:104ab8004ff48070b0e600bfc44e002002460020cc
:104ac800108010b51378144960f30103137091f83e
:104ad8003340907064f3850313705378d07043f0bb
:104ae800020353704b8f9380fff729fc90718b7ae8
:104af8000133dbb28b72d37191f82e30022b5378cd
:104b080006d191f8531019b143f02003537010bd2a
:104b18006ff34513fae700bf400800202de9f04184
:104b2800c469184e05462046b76ffff7c7ff2378bc
:104b38004ff0010868f301032370637843f0100312
:104b4800637029f07dfb90e80c00a260e3603b8a6b
:104b58006380637884f806806ff3c303637004236b
:104b6800237460236374122385f830303b8aa5f8d8
:104b780080302b850222182385f8252086f8b93045
:104b8800bde8f081c04e00202de9f041c469214df7
:104b980006462046af6ffff791ff23784ff00108d4
:104ba80068f301032370637843f01003637029f0fe
:104bb80047fb90e80c0022616361b5f88830638098
:104bc800637843f008036370d5f88030a360d5f8a4
:104bd8008430e360042323764023637684f80680d8
:104be800fb7c002b14bfc023402363763a7d12b1af
:104bf80043f020036376b5f8883033851a2386f8a6
:104c0800303095f88a3086f83230162385f8b93076
:104c1800bde8f081c04e0020f8b5284bc469d3f830
:104c28000c5293f80832064605eb8313ab4207d8bb
:104c3800234b43f243021a80bde8f8404af0babf5a
:104c48002f78012f0ad04035f0e786f832701c2300
:104c580086f83030042375602b70f8bd2046fff7c6
:104c68002dff237867f301032370637843f018035b
:104c780063706a7d62f3410363706b8a6380ab681b
:104c8800a360eb68e3600f4b5b8fa38029f0d8fa31
:104c980090e80c00636107232261a77123762b8ab1
:104ca800a4f819302b7de3766b8a33856b781b0764
:104cb800cbd4052386f83230c9e700bfc04e0020a8
:104cc80090360020400800202de9f041c4691a4fb1
:104cd800dff8688005462046fff7f0fe2378d7f80e
:104ce8008c21012666f3010323706378527b03f05d
:104cf800f70343f0100362f341036370d7f8903170
:104d08009b886380b8f83a30a38029f099fa90e834
:104d18000c00a671a260e3600623237498f808309b
:104d28006374d7f890319b882b85122385f830302f
:104d380085f83260bde8f081c04e002040080020b0
:104d48002de9f04fc4697f4e85b007462046fff72e
:104d5800b5fe2378012565f301032370637843f0da
:104d68001003637029f06cfa90e80c00e3606ff0b0
:104d78000303a3704ff0ff33e37008232374637cad
:104d8800a260002161f3c71363746f4ba571d3e967
:104d98001089b6f878c2d6f8f820d6f8f4004ff69d
:104da800f77e904270d31a2900f28d8096f87a2205
:104db800637c002a7fd143f06003637404f16003cd
:104dc8000193d6f8f4300093d6f8f8300393d6f868
:104dd800fc3002935c4bb6f8785296f87a92d3e995
:104de800102304f112089b469246ae4643464ff004
:104df800000c009a002603998a42c0f0868026b3e8
:104e0800009ab5881d80b11a504ac9105143029ab8
:104e180002ebc1019a7888798979c0f3c20060f3fe
:104e2800020202f0f70261f306126ff3c712b9f13a
:104e3800000f9a701cbfae46cc465207019a18bfa5
:104e4800033301359a42adb2d3d8bcf1000f02d07a
:104e58003c4aa2f878e2a3eb08083d4b627c03fbce
:104e680008f363f304026274364a92f87a1209b9b5
:104e7800a2f8781203f01f0303eb4303123387f8f9
:104e8800303005b0bde8f08f0378062b11d0457897
:104e9800022d0ed0d0e904abd94508bfd04508d1c2
:104ea8008388734505d8012d03d19c459cbf0131ea
:104eb800c9b2283075e7002203f0df0386f87a22aa
:104ec80043f0400379e796f87a522db1637c03f0fa
:104ed800df036ff3861370e71e4940f2131035f0b5
:104ee80095f996f87b32012b637c1dbf43f02003b4
:104ef80065f38613637443f0600315bf012363747d
:104f080086f87a3286f87a5258e71178062914d04a
:104f18005178022911d0d2e904018b4508bf824596
:104f28000bd191884ff6f770814206d88d4204d88c
:104f38002eb1b088884288bf164628325be71646ed
:104f4800fbe700bfc04e002040080020cdccccccf1
:104f5800abaaaaaa3b510020f8b52a4bc469d3f8da
:104f6800985393f8943303eb4303064605ebc303c6
:104f78009d420bd12046fff7a1fd2278012363f360
:104f88000102a371002322705b88ffde2f78012fb6
:104f980001d01835ece72046fff790fd2378a7717c
:104fa80067f3010323706b886380637843f0100311
:104fb800637029f045f990e80c0063616378226119
:104fc80043f008036370ab68a360eb68e3600c23ed
:104fd80023766b7863760c4b93f85320a37ec2f349
:104fe800400162f3000361f34103a3761b2386f8b3
:104ff800303075600223aa742b70a37e6ff3c70349
:10500800a376f8bdc04e0020400800200a4bd3f814
:10501800980393f8943303eb430300ebc3039842dc
:1050280000d170470278032a03d11822002154f0d6
:10503800b3be1830f3e700bfc04e00202de9f34798
:105048000f4602a9012301f8013d8046372035f0bb
:10505800ddf8424b93f82e20022a994603d19df899
:105068000730002b74d03e4d002295f8e5c0d5f8e6
:10507800e0001446d3b2634523d9002c6cd0a77046
:10508800d9f80c20a4f800800a3201236645626032
:10509800e37007d195f8e430013b9e423cbf0136ee
:1050a80085f8e56095f8c83013bb2e4b2e480121d2
:1050b8004ef022fc2c484ef033fc012002b0bde833
:1050c800f08700ebc30191f803e0bef1000f07d0b1
:1050d80030f833a0c24503d191f802a0ba4539d0bf
:1050e80024b9bef1000f04bf1e460c460132c1e7c9
:1050f80032f05af9d5f8d03095f8e570d5f8e0e0f7
:10510800984238bfdb434ff000052cbfc01ac018c7
:105118004ff0ff322e46ebb2bb4205d96168114b06
:105128008a4228bf0a46c1e70eebc303d97851b1ba
:10513800596841b19c4206d0884206d2091a8a426f
:10514800596028bf0a460135e5e75e60de70fae778
:105158000320b3e70020b1e70220afe740080020b2
:10516800c04e0020b5610001884f00202de9f041b4
:10517800537d05460c4616466bb101784f1efbb2af
:105188000b2b08d862884ff6f7739a4206d8104b53
:1051980053f82730b3b90020bde8f081082904d8b6
:1051a8004ff48973cb40db07f1d40a4ba0885b8f9f
:1051b8008342f0d0e179fff741ff00f0fd000128bc
:1051c800e9d1e4e732462146681cbde8f0411847ba
:1051d800808e03014008002013b540f20b100df13a
:1051e800060135f013f8bdf806303bb90e4b43f213
:1051f80015121a804af0defc02b010bd0b4c0c49a7
:1052080040f20a2034f0e8ffbdf80620d4f8e800a0
:10521800120183180021c4f8ec3054f0bdfdd4f815
:10522800e830c4f8f030e7e790360020c04e0020a0
:10523800a84f00200348012380f87c3200f5147041
:105248003bf038bdc04e00201a4b70b5d3f8a01201
:10525800d3f89c420646002522784ab993f8a5223d
:10526800d2b9012283f8a52213483bf023fd13e0ad
:105278006078000704d44db12878904288bf25464d
:105288001834a142e8d81db9284670bd2546f7e76d
:105298002846fff7d3f92c4618220021204654f05f
:1052a8007bfd4ff0000366f3c3036370272323706d
:1052b8002546e9e7c04e00204851002038b50d4c7e
:1052c800d4f8f4502846fff715fbd4f8f830283501
:1052d8009d42f7d3084bc4f814314ff40063c4f867
:1052e8000c31002384f810310448bde838403bf005
:1052f800e1bc00bfc04e002011be0001c44f002019
:105308000348002380f87c3200f514703bf0fcbca5
:10531800c04e002073b5174e0df107014ff486708b
:1053280034f074ff314640f20b2034f055ffa6f5f7
:1053380027749df80720d4f89c0202eb4202d200a1
:10534800831800217360002554f026fd2020357253
:10535800fff762faa6f1140075723bf0d5fc064b14
:1053680046f8043c4ff4807306f8085c46f80c3c99
:1053780002b070bd5c51002085530001f8b5134d93
:10538800d5f89c42002385f8a5321834012714f873
:10539800183ca4f11800264633b1013bdbb204f8ef
:1053a800183c7bb9fff74af9d5f8a032b34204f1ab
:1053b8001804ecd895f8a5323bb90548bde8f84083
:1053c8003bf0a2bc85f8a572eee7f8bdc04e002000
:1053d800485100202de9f0470d4691f82010017240
:1053e80090461e4642686b6a9342044602d20b44ba
:1053f8009a422fd3227a696a606853f06dfe04f1ed
:1054080010016068b5f808a095f82890277a95f9f2
:105418002a50fef765ff94f824309df8202084f880
:105428002890ff1a237884f8257084f8295062f3ad
:10543800000398f80120a4f826a0c2f3400262f302
:1054480041039df8242066f3c70362f382032370a7
:10545800bde8f087034b43f2a7121a804af0bcfb61
:10546800c8e700bf9036002010b5074c002384f829
:105478008830064bc4f88c3004f180002bf02cfceb
:10548800142384f8b93010bdc04e002009b90001ba
:1054980070b5244c04f54170d4f8045346f0f0ff7d
:1054a8002378287913f0100fa5f1080623461ad09f
:1054b800042818d11c4b2a7c1a72682384f80033fc
:1054c8001a4bc4f8283306206f2304f54871c4f832
:1054d800086384f8183334f099fe04f54470bde885
:1054e80070402bf03fbc062812d10f4a297c11725c
:1054f800682283f800230d4ac3f828236f22c3f8d3
:10550800086383f818230a4934f080fe0948e6e75f
:10551800c22385f8233005f11800eb68bde8704018
:10552800184700bfc04e002040080020356e00011b
:10553800e0510020d0510020426830b45178034631
:10554800cc0754bf0224012483f85440d5789478ba
:1055580044ea0524a3f856401479527944ea022211
:10556800a3f85820da8ca3f85a2093f8252083f85a
:105578005c201a6a1a6693f8282083f8642093f846
:10558800292083f86520064a1a67c1f340010022e2
:10559800383083f86c1083f86d2030bc09f030bfc8
:1055a8008f670001a0f57f40fb3804281cd8dfe88e
:1055b80000f0050e161b0300012070470b4b93f8f3
:1055c8002e20012a10d1187ac0f380007047074bab
:1055d80093f82e0001288cbf002001207047034b50
:1055e800187ac0f3c00070470020704740080020b8
:1055f8003d2803d111b1024b0a881a80704700bfb9
:10560800283b012051b1502809d051280cd03d2801
:1056180004d1084a098813890b4413817047054a45
:105628009388013393807047024ad3880133d3802b
:10563800704700bf283b012010f0fb0f03d1012267
:10564800044b1a707047052801d00e28fad10022a1
:10565800f6e700bfc03a01200e4a012303fa00f022
:10566800536810b50c4c0343536023881b070fd4b1
:1056780031f026fc23889bb243f00803238031f0e5
:105688002ffc064b06481b68bde810401b691847ed
:1056980010bd00bfc04e0020a63d012030080020ec
:1056a80034080020034b9a6f192083f8b90011774a
:1056b8000c20d1e7c04e0020054b0178d3f87c219f
:1056c80082f82810472283f880210620c4e700bf0b
:1056d800c04e0020436803221a7059701720bbe798
:1056e80037b5164c94f85221452a054605d0144b77
:1056f8004ff446521a804af06ffac5b1114b9d42d9
:1057080015d1aa2384f852310f4bea7a5b8fadf892
:10571800043052b9102301a88df806300ff04cfc64
:105728000220fff799ff03b030bd0923f3e7044bcc
:1057380043f281121a804af04ffae2e7c04e002085
:1057480090360020f84f00204008002070b5184c13
:1057580094f8c430d4f8c060e82b054605d0154b42
:1057680043f287021a804af037fa2eb9114b43f2f6
:1057780088021a804af030fa06f10c039d4205d0df
:105788000c4b43f289021a804af026fa736a2a7986
:105798001a702a685a60ea791a72e92384f8c430c0
:1057a80094f8c53023700d20bde8704054e700bf61
:1057b800c04e00209036002070b5144cd4f87461a7
:1057c80005462eb9124b43f2b4021a804af004fa85
:1057d80006f118039d4205d00d4b43f2b5021a801d
:1057e8004af0faf994f878315e2b05d0084b43f269
:1057f800b6021a804af0f0f92b7886f84c30582314
:1058080084f878310920bde8704025e7c04e0020b3
:105818009036002070b5164c94f83c20a56b712a80
:10582800064605d0134b43f2d7021a804af0d4f942
:105838002db9104b43f2d8021a804af0cdf905f180
:105848000c039e4205d00b4b43f2d9021a804af052
:10585800c3f933790bb1fa2b00d1002385f8243032
:10586800722384f83c300820bde87040f4e600bf9d
:10587800c04e00209036002070b50e4c10f80c1c5d
:10588800d4f8145206462a203af0fefe94f8103254
:10589800602b08d133782b735e2384f810320720ed
:1058a800bde87040d8e60db15d23f6e7482384f8db
:1058b800103270bdc04e002008b50146034846f0be
:1058c800bbfd0320bde80840c6e600bf004f00202e
:1058d80010b504460120fff783f860b1064a224458
:1058e80092f85811013982f8581180f88640fff76c
:1058f800e3ff012010bd10bdc04e0020132810b5d5
:10590800044605d90c4b43f2d2121a804af064f9c6
:105918000a4a224492f858310133dbb282f85831ee
:105928002bb9054b43f2d3121a804af055f9204699
:10593800bde81040cce700bf90360020c04e0020e4
:1059480010b512480c4646f09bfd0346426803f822
:10595800154f184690470e4bd3f8b0228ab1202134
:1059680083f8cc12937d10890c2b08d04ff6f7736f
:1059780098428cbf01200220bde81040bee71020ed
:10598800fae7782283f8cc2210bd00bf70510020be
:10599800c04e002010b50720fef7deff0446b8b160
:1059a8000c4846f06dfd04f12303c4f81031037967
:1059b80084f831310346803443f80c4f8268184626
:1059c8009047054b5b6f1bb11520bde8104043e6bf
:1059d80010bd00bf344f0020c04e002070b51b4cd6
:1059e800d4f8745106462db9194b43f2b1021a8006
:1059f8004af0f2f805f11c039e4205d0144b43f21d
:105a0800b2021a804af0e8f894f878315d2b05d094
:105a18000f4b43f2b3021a804af0def8337863b9c9
:105a28006ff07f432b610b4b6b6105f108002bf086
:105a380093f95e2384f8783170bd85f84c3058238b
:105a480084f878310920bde8704005e6c04e002092
:105a580090360020c157000170b5314c94f8c4301d
:105a6800e72b32d1d4f8c0502db92e4b43f2810226
:105a78001a804af0b1f8237813f0010f6b6a1fd02f
:105a88001a6aaa61002685f8206093f8242085f810
:105a98002120254a92f8372085f822201022093340
:105aa80085f82320214a6b61ea61281d2bf057f9fc
:105ab800237884f8c5302670e82384f8c43070bd94
:105ac800c3221a70e92384f8c43094f8c430e92b4f
:105ad80022d1174846f0d4fc054628b9114b43f2a9
:105ae80082021a804af078f8686a836a3bb943f2fe
:105af80083020c4bbde870401a804af05bb89847a7
:105b0800d4f8c03033b1e72384f8c4300d20bde8a1
:105b18007040a1e51323d0e743f28602e9e700bf0e
:105b2800c04e002090360020400800205557000144
:105b3800804f002038b51c4c1c4846f0a1fc94f856
:105b48004c30032b054605d0194b43f2b4121a808a
:105b58004af042f82db9164b43f2b5121a804af0b2
:105b68003bf8d5f898303bb9114b43f2b6121a807e
:105b7800bde838404af01eb805f19c00984795f8f2
:105b8800a9301bb90b493c203af07efd0a493d205b
:105b98003af048fda36c1bb10e20bde838405be528
:105ba800412384f84c3038bdc04e0020084f0020f7
:105bb80090360020283b0120c43a0120f8b5344e25
:105bc800d6f86c41062094f8b110fef72dff354643
:105bd800002858d0037803f0fa036ff341030370e9
:105be800b4f8ac2094f8b030a0f85620294a80f8d0
:105bf8005430528fa0f8582094f8b12080f85c20d7
:105c0800436894f8b570d4f8901080f86c7002f17d
:105c1800090e093300f13806036680f808e017b169
:105c2800036e0e3303661c4b0367012380f86d3047
:105c3800006e53f051fa194846f022fc002384f80c
:105c4800a83084f8a930d4f89430c4f8a03094f877
:105c5800b7308bb9d4f8983004f19c009847304697
:105c680009f0cefbd5f86c315bb10f20fff7f4fcdf
:105c78008f2385f87031f8bd04f10800fff71cfe8a
:105c8800ede78e23f5e7902386f87031f8bd00bf65
:105c9800c04e0020400800208f6700012c500020d3
:105ca800f8b5174c94f87833042b0f4623d1d4f861
:105cb8007c6315692eb9134b43f205521a8049f0db
:105cc8008bffbb79012b18d10f483bf01df894f8d6
:105cd8007833042b07d16b782bb9ab780b4a03f0d8
:105ce800070382f853306b78052284f8782316204e
:105cf8003374fff7b1fc0020f8bd0120f8bd00bfe8
:105d0800c04e00209036002040520020400800205d
:105d1800f8b5454d454846f0b3fb2b78db070646fa
:105d28007cd5434fc188d5f89c32788fd5f8a0220e
:105d38001c782cb11c898c4202d19c88844207d0e3
:105d480018339342f4d30120fff77efa044630b9a2
:105d580004237374f36806f11000984753e032790e
:105d6800637862f34613727a62f304136370ff2355
:105d7800e3707b8fa380f388238195f884325a1ec1
:105d88000d2a47d997f82d30013313f0ff034ff050
:105d9800010214bf87f82d3087f82d2085f884225a
:105da80097f82d1026203af06ffc97f82d305a1ee0
:105db80095f8843243ea0213a372337ae37200231c
:105dc8002373bb7a26610133dbb2bb7263736378da
:105dd80043f00303637095f8a4322bb9932385f835
:105de800a4320520fff738fc124b59894ff6ff7291
:105df800914204bf00225a815a890f490132452035
:105e08005a813af041fcd5f8803263b10420bde8ec
:105e1800f84021e4013385f88432c6e7c22300f84c
:105e2800103ff36899e7f8bdc04e002040510020ac
:105e380040080020283b0120323b0120134b9842a8
:105e480037b5054605d0124b43f205021a8049f0d2
:105e5800c3fe104c002384f830302b789bb90e4dcc
:105e6800238c29460d2021f83a3f34f0fbf994f8a9
:105e7800313043b96b8fadf8043001a810238df889
:105e880006300ff099f803b030bd00bf543b012035
:105e980090360020283b0120400800202de9f341de
:105ea8001b4c0df10701d4f8f4800546252034f089
:105eb800adf9d4f8fc60d4f8f470dff858e0d4f801
:105ec800f8400020424601461378062b0fd0d31b1a
:105ed800db100efb03f306ebc303db791d4253789b
:105ee80004bf0131c9b2022b1cbf0130c0b2283235
:105ef800a242e9d340b19df80730984228bf18461e
:105f08008142b4bf0020012002b0bde8f08100bf8b
:105f1800c04e0020cdcccccc10b50a4c6f2384f8f1
:105f2800d03104f5ec71062034f070f9064bc4f852
:105f3800e03104f5e4702af015ff352384f80032c7
:105f480010bd00bfc04e00208d860001037810b53b
:105f580013b9bde81040dfe7054cd4f88c210a20be
:105f680082f82b30fff778fb222384f8003210bd2b
:105f7800c04e002010b5014604460d4846f05cfab4
:105f88000c4b93f8cc22782a11d1202283f8cc220a
:105f9800a37d20890c2b08d04ff6f77398428cbf4d
:105fa80001200220bde81040a8e41020fae710bd47
:105fb80070510020c04e002010b50446b830fef7de
:105fc800f1fa144a0023237014469918d8b291f8ac
:105fd8005811d1b1fff77cfcd8b994f8a4321a2b28
:105fe80002d10520fff738fb94f87031902b05d1ca
:105ff800912384f870310f20fff72efb636f43b1b4
:106008001520bde81040fff727bb0133142bdcd166
:10601800e3e710bdc04e002008b5d0f89430c0f8b2
:10602800a030002380f8a910c0f8a43001460d481c
:1060380046f002fa0c4a92f84c30412b07d1032360
:1060480082f84c300e20bde80840fff705bb032b53
:1060580007d0064b43f2b3121a80bde8084049f056
:10606800a9bd08bd084f0020c04e00209036002072
:1060780038b5446890f8833084f8a8300d46383035
:10608800fef790fa29462046bde83840c4e708b52f
:1060980000f10801084846f0cff9084b93f80023af
:1060a800662a07d1672283f800231220bde808403a
:1060b800fff7d2ba08bd00bfc4510020c04e00206f
:1060c8000a49d1f80c32834205d891f8081203eb3b
:1060d8008113984205d3064b43f241021a8049f0d6
:1060e80069bd4022002153f057be00bfc04e0020ba
:1060f800903600202de9f0412a4dd5f80c4295f84c
:10610800086286b004eb8616a4b341f64c574ff0ec
:106118000008b44234d22178022934d1238cadf856
:106128000030d4e90623cde902238df811108df84b
:10613800128063789b0712d595f87c32022b0ed01b
:10614800fff7def84bf098f883b2b3fbf7f007fbe4
:10615800103017fa80f0c5f85802fff76bf863782b
:106168008df810302046fff7abff68460ff0dcf8db
:106178004034cee70c4b43f242021a8049f01afd34
:1061880006b0bde8f0810329f2d1238aadf80030ca
:10619800d4e90223cde902238df81110637d8df82f
:1061a8001230c6e7c04e002090360020f8b51849d6
:1061b80091f8e550d1f8e060d1f8d47000244ff0a0
:1061c800ff32e3b2ab420bd9531c18d0114b124823
:1061d80001214df091fb1048bde8f8404df0a0bbff
:1061e80006ebc303d87830b15868c01b586020b19b
:1061f800824228bf02460134e3e7d870fbe7002358
:1062080081f8e5300448bde8f8404df091bb00bf87
:10621800c04e0020b5610001884f0020084831b900
:10622800042380f8783300f560703af043bdd0f865
:106238007c33052280f8782319741620fff70cbaee
:10624800c04e002007b54ff48a7001a933f0deff75
:10625800134b93f87a221946d2b193f87b22013a6c
:10626800d2b283f87b229ab1019858b10122c3f8bf
:106278006c0283f87c2203f519703af01bfd03b019
:106288005df804fb022283f87c22fff737fbf6e770
:1062980043f69823c1f85832fef7ccffefe700bf6a
:1062a800c04e002070b5144d064605f55170d5f85e
:1062b800444346f0e5f8114991f8383084f8223023
:1062c800d1e91023c4e906234b8f238484f8236083
:1062d800e36804f118009847d5f844333bb1172315
:1062e80085f840331320bde87040fff7b5b9162391
:1062f80085f8403370bd00bfc04e00204008002024
:10630800027810b51ab11046bde81040cae74378c4
:106318002e4c502b3dd011d8462b1dd04b2b32d0b4
:10632800452b3cd1462384f850330f2384f8583347
:1063380004f55270bde810402af014bd532b13d059
:106348006f2b1ad0522b2ad1532384f85033204b69
:106358005b8fa4f85833ebe7522384f850331c4b77
:106368001b7ac3f3c003e1e76f2384f8503304f5c5
:106378005671062033f04affdae74b2384f850338e
:10638800134b1b88e5e7502384f85033104b9b8f41
:10639800dfe70f4b84f8502393f83830c6e794f8ba
:1063a80050338bb90a4b0b481b7a13f0080f14bff4
:1063b8006ff07f430023c4f85033074bc4f85433bd
:1063c800bde810402af0c8bc10bd00bfc04e002078
:1063d8004008002008520020e5630001007810b949
:1063e800014bbd221a705de7c04e002010b50f4c5e
:1063f800237cc22b0ad104f1140046f041f843680b
:106408000830984763697bb1c1232374237cc12b6f
:1064180009d1012384f82030054b636205482af02e
:106428005bfcc323237410bd1923eee7c04e002084
:1064380051c80001d84e0020037907b56bb1084b4d
:1064480093f85320920708d55b8fadf8043001a864
:1064580009238df806300ef0affd03b05df804fb9c
:106468004008002010b51e4c94f87833d4f87c030b
:10647800012b224620d12378db0618d503790e2b71
:1064880003d8437913f0fe0f09d0052382f8783337
:10649800c12303741620bde81040fff7ddb80223be
:1064a80084f878331220bde81040fff727ba052397
:1064b80084f87833c223ece7052b0fd183680c30be
:1064c800984704f55f7045f0dbffd4f87c331bb1c7
:1064d800012384f87833dde784f8783310bd00bff2
:1064e800c04e00200178134be12910b41846d3f8a8
:1064f800dc4216d193f8d922032a12d80e49013268
:10650800888f0988a3f8f01283f8d922a421a3f868
:10651800ea0283f8d81203f538705df8044b2af0c4
:1065280027bca523217380f8d8325df8044b0120dd
:10653800fff792b8c04e00204008002037b5314818
:1065480090f810325d2b04461ed10278d0f8143230
:10655800d20714d5602280f810221b792a4ac0f885
:106568003022003318bf0123412280f8202280f80e
:10657800283200f506702af0f5fb03b030bdc222c0
:106588001a735e2380f8103294f810325e2bf4d11f
:106598001e4845f075ffd4f81432054663b1c2238e
:1065a80003735d2384f810320720fff755f8ab68b2
:1065b80005f10c009847e0e703795a1ed2b2fd2a8c
:1065c8000bd84ff47a725343c4f8403210483af06b
:1065d80071fb4a2384f81032e9e7ff2b0fd10df144
:1065e80007014ff4957033f011fe9df80730012b29
:1065f80001d1084be8e7022b01d1074be4e7482318
:10660800e8e700bfc04e002081580001d4500020a8
:10661800f850002000c8af0030e003000d4b10b464
:1066280093f8cd429cb9a3f8c222a3f8c022012254
:1066380083f8ca42a3f8bc0283f8c442a3f8be1286
:1066480083f8cd2203f52d705df8044b92e45df8d4
:10665800044b7047c04e002010b5214c94f8d83236
:10666800a32b23d1d4f8dc3200221a732278d20764
:106678005cbfc2221a731a790ab1c1221a731b7b32
:106688008bb9184b18489a8f1b88a4f8f032a423aa
:1066980084f8d832012384f8d932a4f8ea22bde874
:1066a80010402af065bba52384f8d83294f8d83274
:1066b800a52b13d10d4845f0e3fe83680c309847ad
:1066c800d4f8dc323bb1a32384f8d8320120bde8ea
:1066d8001040fef7c1bf312384f8d83210bd00bf87
:1066e800c04e002040080020a05100209c510020ee
:1066f80007b541688a79013ad3b28b71027812f0f2
:10670800010202d01a1c18bf0122037862f30003a9
:106718000370dbb2da0732d5027a8df80020c3f3b2
:10672800c40301918df80130c38cadf80230019b90
:106738005a786ff345125a709df8013080f8863008
:106748009df8003080f83030019b90f88720c361b5
:10675800bdf80230a0f88030002363f3410243649f
:1067680080f840308364c36480f83c3080f83d3062
:1067780080f88720fff7a0f803b05df804fb8038a5
:10678800fff71afcf8e710f8743cdb0701d57438fa
:10679800aee7f43810e408480378db0705d5022390
:1067a80080f87c320020fff7a9b8012380f87c32fa
:1067b80000f519703af07ebac04e0020104b93f8dd
:1067c80000319a421ad29b1adbb2994216d20d4b6b
:1067d80068b1597c890706d493f84800904294bf61
:1067e8000020012000e0002080f0010070475a7c62
:1067f800d207f9d493f849008842f0e7012070479e
:10680800c04e002040080020054b1a78d20705d555
:10681800022283f87c220020fff770b8fef70abd39
:10682800c04e00202de9f7434b4e90f8863090f883
:106838008290c46906eb0313054693f83c308df843
:10684800033009f1ff330f46092b14d8dfe803f0b2
:1068580077130513132626131326e1290bd00029d5
:106868006288adf804200cbf1323092301a88df812
:1068780006300ef0a1fb95f8863006eb0316b36bd5
:1068880013b13946284698479df803301bb1a5f146
:106898008000fff791fb03b0bde8f083b4f80280f5
:1068a8006178404601f00101fdf702ff0346002828
:1068b80042d04279bfb9ff2a12d1284ad2f8a83269
:1068c800b2f8ac22c2ebc2021a441979c90741bf17
:1068d800597949080131597107339342f5d3cae709
:1068e80001324271c7e752b11c4991f8ae1242fa1f
:1068f80001f111f0ff0108bf0121521a42715a79c2
:106908001979003218bf012262f300011971144a83
:10691800a088528f8242aed022789207abd113b1b1
:106928001b79db07a7d4b9f1060fa4d1b5f88020ed
:106938004146fff773fe9ee7002fe8d19be7b0f8ca
:1069480080206188a088fff769fe6178608801f07f
:106958000101fdf7c9fe8ee7808e0301c04e0020bd
:106968004008002010b5194b93f80021184b9142ac
:106978001ad2521ad2b2904216d25c7ca2071cd507
:10698800002193f8202061f3820283f82020e20797
:106998001ad493f84920824294bf0020012093f82a
:1069a800202060f3c71205e093f8202002f0fb02d4
:1069b8006ff3c71283f8202010bd93f848208a424d
:1069c80094bf00210121dce70020e8e7c04e002049
:1069d800400800200d4b10b40021d3f8f840d3f83c
:1069e800f43008461a78062a0ad002f0fb02012a77
:1069f80006d15a78022a0bbf01300131c0b2c9b2a0
:106a080028339c42eed85df8044babe7c04e00201b
:106a1800134b002293f832109a77da7f61f303025e
:106a280093f8331061f30712da7793f82020597a34
:106a380002f0fc0261f3c60283f820201a6cc3f846
:106a480021205a6cc3f82520ff2283f8292083f8d7
:106a58002a2083f82b201a7c83f82c20bae700bf61
:106a680040080020f8b5464dd5f87441064604f1b3
:106a780008072cb9434b43f2ae021a8049f0acf830
:106a880004f124039e4205d03e4b43f2af021a8024
:106a980049f0a2f833784bb184f84c30582385f884
:106aa80078310920bde8f840fef7d6bd95f8783171
:106ab800593b072b5bd8dfe803f0041b353b5a5ad8
:106ac80044156f23237404f11801062033f09efb4c
:106ad800602385f878312c4b23623846bde8f840ae
:106ae8002af040b9462323740f2323765a23f0e76c
:106af800264e002306f140013320737233f086fbe3
:106b0800d6e91023134305d127f09afbd0e90023d7
:106b1800c6e91023fff77cff452323741c4ba361b0
:106b28005b23d6e752232374012323765c23d0e723
:106b38008323237404f11801082033f067fb5f23d3
:106b4800c7e7124b9a8f228293f83820a27493f8e1
:106b58003730e37401232375002363750d4ba3615c
:106b680038462af002f95d2385f87831f8bd054bdf
:106b780043f2b0021a80bde8f84049f01bb800bfe4
:106b8800c04e0020903600206d6a000140080020a9
:106b98005e080020e559000173b502ad002605f82e
:106ba800016d284c294640f2071033f02ffb9df861
:106bb800073084f8343004f148014ff4837033f01f
:106bc80025fb294640f2051033f020fb94f84820b5
:106bd8009df807309a4239bf9b1a84f8493084f8e7
:106be800483084f84960fff7f5fe0223294619204a
:106bf8008df8073033f00afb9df8073084f82f3002
:106c080094f82e301049022b0cbf002301232220b8
:106c180084f8533033f0fafa0c4b43f6095093f8e2
:106c2800325027f027fb00eb45054ff4006027f0b2
:106c380021fb05eb500094f834506843e06002b043
:106c480070bd00bf40080020940800204034002098
:106c580038b51a4c2378db062ad5194dd4f84433b5
:106c680018221b7c84f8402305f13c0117202b7265
:106c780033f0ccfa05f13801162033f0c7fafff7e4
:106c88008bfffff7c5fe0f4bc4f86033452384f82c
:106c9800503304f5527005f11e03c4f858332af036
:106ca80061f895f838102420bde8384039f0ecbc7c
:106cb800c220bde83840fff7f5ba00bfc04e00203b
:106cc8004008002009630001d0b5134c134ad4f8da
:106cd800083392f8381083f82a10d2e91067528fd7
:106ce8001a8583f82b00c3e908675a6903f1200065
:106cf80090470023c4f80833d4f804333bb1672322
:106d080084f800331220bde8d040fef7a5bc662306
:106d180084f80033d0bd00bfc04e002040080020da
:106d28000f4b0079d3f80823127b062a00d1cbe752
:106d3800042a10d178b96a2283f80023094ac3f8d3
:106d48002823452283f81823074ac3f8202303f58c
:106d580044702af007b8ea2808bfca20e7e700bf4e
:106d6800c04e0020356e00015e080020007868b92a
:106d780007486b2380f80033064bc0f81c335323b5
:106d880080f8183300f5447029f0a3bf9ce700bfd2
:106d9800c04e0020a16d000138b505781db1284608
:106da800bde8384090e74478502c16d0532c07d0d3
:106db8004b2c1dd11b4b02891a801b48502304e021
:106dc800184b028918485a874b2380f8183300f566
:106dd8004470bde8384029f07cbf1249038921f886
:106de8003c3f172033f03efa0f4880f81853eee77f
:106df800b4b90c4d037a2946162001f8383f33f010
:106e080031fafff705fe084b2046bd221a70fff73e
:106e18005bff95f838102420bde8384039f034bcc1
:106e280038bd00bf40080020c04e002002780ab1db
:106e3800104649e74378462b30d002d8452b22d05c
:106e48007047522b33d06f2b43d12248692180f8e9
:106e58000013032180f82c13d0f808130b6bc0f82b
:106e6800243391f8341080f82d131b4980f82f2310
:106e780091f83710194a80f82e13c0f8282300f526
:106e8800447029f06cbf1348462380f818330f2349
:106e980080f8203300f5447029f064bf0d48522370
:106ea80080f818330c4b1b7ac3f3c003f0e70a4b86
:106eb80008481b7a13f0080f14bf6ff07f430023b4
:106ec800c0f81833064bc0f81c3300f5447029f09d
:106ed80043bf7047c04e002040080020296d0001c4
:106ee800756d00012de9f047c469224ddff88880ef
:106ef800af6f06462046fdf7e1fd23784ff0010a03
:106f08006af301032370637843f01003637027f07a
:106f180097f990e80c00e3606ff00203a260a37099
:106f28004ff0ff33e370e179b8f83a00fef786f8de
:106f3800637884f806a04ff0000969f3c30363700f
:106f48000423237484f8119098f82e30022b03d070
:106f5800fb7c0bb1802363743b7d1bb1637c43f0e6
:106f680020036374122386f83030132385f8b93070
:106f7800bde8f087c04e0020400800202de970438e
:106f880016460c46fdf7fefb144a92f8703383420e
:106f980081bf03b2c3ebc300d2f8743303eb8003a1
:106fa8004ff000028cbf1433002332609bb1d4e948
:106fb80000891868d0e90045a94508bfa04503d154
:106fc80030600020bde870835a6810309042f1d3d9
:106fd8000220bde870830120bde87083c04e002008
:106fe80030b58bb043680593044690f824308df88b
:106ff800183005a838f082ff079909b3089bfbb140
:1070080094f824201044227a904219dc0d681a68fa
:107018005b6803936b1c02923cd001aa02a99df8fd
:107028001900fff7abff012834d0019b13b19b680f
:107038009d422fd99df81900fdf7bcfb206440b98b
:10704800a4f18000fef7b8ff22e0adf80430112368
:107058002ae0184b93f84b3084f84430089b1a68a0
:107068005b68636304f13003a3646368e36494f8c2
:10707800243084f85030237a84f851300e4b6365fd
:107088000023226384f8523004f1380038f02affd4
:107098000bb030bd9df81900fdf78cfbe38c002880
:1070a800d3d1adf80430162301a88df806300df0c1
:1070b80083ffc5e740080020b7c4000130b5134c72
:1070c800002384f8b83094f8ad3085b02546bbb9b4
:1070d80004f1a00027f0c0f820b9d4e9282352ea27
:1070e80003010fd10a4900220023c1e9102395f8b2
:1070f800ac108df808106846cde900230ef06ff942
:1071080005b030bd94f8ac10f3e700bfc04e0020c6
:10711800400800200d4b37b50d4cd3f87c2394f86c
:107128005350052183f87813fe2313741620fef7b5
:1071380093faab0708d5638fadf8043001a809238b
:107148008df806300df038ff03b030bdc04e00207a
:107158004008002008b550f80c3c40f8503c037932
:1071680000f83c3c037853b9114b9a8f30f84c3ceb
:107178009a4213d16438bde8084029f0fcbd022bbf
:107188000ad007d3042b05d8ce216c38bde80840b7
:10719800fff748bbc321f8e7cc21f6e7a0f16c0163
:1071a800044845f049f90320bde80840fef754ba01
:1071b80040080020044f002037b50546224c00281f
:1071c8003bd094f85231442b37d104f59a73984246
:1071d80033d12d78aa2384f8523155bb1b4ab4f811
:1071e80028315387adf8043001a810238df80630f4
:1071f8000df0e2fe94f85331dbb10d2384f82e3103
:107208004ff6fd73a4f820314ff6ff73a4f824312c
:10721800b4f85031a4f822310d4bc4f81c310d4894
:1072280084f82851462384f85231fef7a3fe03b0b0
:1072380030bd0220fef710faf9e7074b43f282123d
:107248001a8048f0c9fcc4e7c04e0020400800205e
:1072580009840001d84f002090360020f8b53a4d37
:1072680095f87831d5f87441572b064605d0374b39
:1072780043f2a8021a8048f0affc2cb9334b43f212
:10728800a9021a8048f0a8fc04f110039e4205d018
:107298002e4b43f2aa021a8048f09efc3379002b49
:1072a80043d13168e2698a4307d143f2ba02274bd6
:1072b8001a80bde8f84048f07dbcb768f679202010
:1072c80001219e420dd9114207d017f803e001337e
:1072d800bef1cc0f88bf8a43dbb201384fea4101c7
:1072e800efd1012384f8243094f84d3084f8253008
:1072f800174be26193f8373084f8263004f1270100
:107308004ff4827032f082ff04f1180140f202203b
:1073180032f062ff04f108060e4b2362304629f072
:107328001efd562385f87831f8bdfa2b02d143f2b9
:10733800bb02bce784f84c30582385f87831092023
:10734800bde8f840fef788b9c04e0020903600200e
:1073580040080020617300012de9f04f8c4f97f829
:107368007831d7f8744187b0562b0646019705d077
:10737800884b43f2ab021a8048f02efc2cb9854b9f
:1073880043f2ac021a8048f027fc04f110039e4235
:1073980005d0804b43f2ad021a8048f01dfc3379ca
:1073a80023b103f0ef02ea2a40f0e7803268e3698c
:1073b8009343029300f0e080d6f808c0f279604663
:1073c8004ff0000e4ff6ff785ffa8ef5aa4273d899
:1073d80002eb4202ff250cebc20303930020a846f0
:1073e800a9464ff0010e4ff6ff7a029b13ea0e0fe3
:1073f800c1b240f09980013020284fea4e0ef4d1f6
:10740800b8f1ff0f40f09580ff2d05d1614b43f295
:10741800b8021a8048f0cefbdff880b106a9002335
:107428008bf8385001f8033d1820d6f8089096f8e4
:10743800078032f0ebfe9df815a05e46baf1000f0a
:107448007bd149f019ff08f1010b80b208eb48081d
:10745800adf8160009ebc80852464ff6ff7188428e
:1074680004bf4ff0010a00204b4698450bd093f813
:1074780010e0ae455fd1b3f804e086455bd101303a
:1074880080b24ff0010a013293b29b45e7d8baf1b6
:10749800000f01d0adf81600bdf81630b3874ff6cf
:1074a800ff7293424fd13b4b43f2b9021a8048f026
:1074b80081fb07b0bde8f08fb0f80490c14503d157
:1074c8000ef1010e18307fe790f810a06b1cdbb2ac
:1074d8009a42f5d09d420dd003eb43010cebc1015c
:1074e800b1f804b0cb4505d191f810b0d34508bf29
:1074f800a1f804800133eae792f810b08b4505d172
:10750800b2f804b0d3451cbf0133dbb21832039f75
:10751800ba42f1d11bb91ef4c30f08d188464b45b6
:107528003cbf99460d4666e762460023efe70d46e5
:1075380072e7454670e7183397e70df116011720f3
:1075480032f064fea8e794f8453004f108000bb166
:10755800b4f84630738723830f4b2362019a532371
:107568002374592382f8783129f0fcfb96f83810f7
:10757800242039f089f89ce7c423019a84f84c3018
:10758800582382f878310920fef766f891e700bfa2
:10759800c04e0020903600206d6a0001400800208f
:1075a800014b588f704700bf4008002070b50b4c46
:1075b80094f830500e467db9532323762084084b27
:1075c800a36204f1100029f0cdfb012384f83030c8
:1075d80084f83160284670bdc32070bd283b012067
:1075e800455e0001014b93f83100704740080020c8
:1075f80008b5fcf7fffd18b103786ff300030370bb
:1076080008bd08b5014638b943f2d0020e4b1a80be
:10761800bde8084048f0ceba0c4844f00dff0c4acb
:1076280092f83c30d62b07d1702382f83c300820e2
:10763800bde80840fef710b8703b022b02d943f2b0
:10764800d102e3e708bd00bf90360020f84e0020c5
:10765800c04e002070b5474c94f80032212b2546c7
:1076680041d104f5c47044f00bffa0f10803c4f83d
:107678008c31414b027c1a72fff78efa2378db06b5
:1076880029d5d4f88c311a7b023a012a23d8322220
:1076980084f80022227093f8342084f8fd211a6bb4
:1076a800c4f8f4210022c4f8f02184f8ee21334a0a
:1076b800c4f8f821012284f8fc219b7b2bb104f546
:1076c800e470bde87040fff79cbf84f8ec31bde87a
:1076d8007040fef721bcd5f88c31c22283f82b20ec
:1076e800222385f8003295f80032222b3fd1224c14
:1076f800d5f88c11638f0b85d1e90023c1e90823e4
:1077080091f82b6094f8383081f82a30f6b9d5f81a
:107718009031d3e9042304f13c011720c4e9102374
:1077280032f0a0fd04f13801162032f09bfdfff77e
:107738006ff9bd232b70637ad5f89021c3ebc3038f
:10774800dbb2928831463046fcf7d7ffd5f88c017a
:107758004369203098470023c5f89031d5f888311f
:1077680033b10a20fdf778ff212385f8003270bd78
:10777800da23fae7c04e002040080020555f0001d8
:1077880008b5014638b94ff442520f4b1a80bde88c
:10779800084048f00fba0d4844f04efe0c4a92f8e3
:1077a800c430132b07d1e72382f8c4300d20bde87d
:1077b8000840fdf751bf1933dbb2022b02d943f25f
:1077c8008a02e2e708bd00bf90360020804f002003
:1077d800c04e002008b5014638b943f2a0020e4b4e
:1077e8001a80bde8084048f0e5b90c4844f024fe8a
:1077f8000b4a92f87831b72b07d1542382f87831a5
:107808000920bde80840fdf727bf543b0c2b02d9df
:1078180043f2bc02e3e708bd903600203450002054
:10782800c04e00204b1edbb2fd2b10b507d90d4b07
:1078380043f2a0421a8048f0bdf9002010bd0a4a60
:10784800d2f86833d2f86c231c783cb95880197088
:107858000146112038f018ff012010bd04339a4268
:10786800f2d8eae790360020c04e00202de9f84310
:1078780080460e4641b9144b43f2a1421a8048f0a3
:1078880099f93046bde8f883104dd5f868430020d3
:107898000434814614f8043c27466bb134f8021cc2
:1078a800414509d1ff2e01d09e4205d1112004f88f
:1078b800049c38f0e9fe0120d5f86c33bb4204f192
:1078c8000404e7d8bde8f88390360020c04e0020b5
:1078d800f7b5064640b9134b43f2a3421a8048f065
:1078e80069f9304603b0f0bd0f4dd5f86843002064
:1078f80004340746ff2ea4f1040303d014f8042c23
:10790800b24208d11b680193122001a938f0bcfecd
:1079180004f8047c0120d5f86c23a24204f1040485
:10792800e8d8dfe790360020c04e002038b50c4676
:1079380039b90e4b43f2a2421a8048f03bf90020b5
:1079480038bd0b4ad2f86833d2f86c131a7832b1c2
:107958005d88854203d1ff2c05d0944203d00433bf
:107968009942f3d8ebe7012038bd00bf90360020dc
:10797800c04e0020064ad2f86833d2f86c230020a3
:10798800197809b90130c0b204339a42f8d870475f
:10799800c04e0020084b30b10430d3f86c33984205
:1079a80004d300207047d3f86803f6e70278002a6a
:1079b800f8d10430f3e700bfc04e002013b50d4cda
:1079c8000df1070140f2151032f020fc214640f27b
:1079d8001120a4f55a7432f0fffb9df80720d4f863
:1079e800680392008318c4f86c33002152f0d4f96c
:1079f80002b010bd28520020014b83f85300704795
:107a080040080020014b83f85400704740080020cc
:107a1800014b93f85300704740080020014b83f84e
:107a28005300704740080020014b93f854007047fa
:107a380040080020014b1888704700bf400800200c
:107a4800014b988f704700bf40080020014b988772
:107a5800704700bf40080020014bd3e91001704770
:107a680040080020d0e90001014bc3e9100170472c
:107a780040080020014b93f82e0070474008002072
:107a8800014b93f83800704740080020034b01462b
:107a980083f83800242038f0f7bd00bf40080020e4
:107aa800014bd868704700bf40080020014bd888b8
:107ab800704700bf40080020014bd880704700bfc6
:107ac8004008002008b5054b01461874222038f0fc
:107ad800dbfdbde80840fef79bbf00bf4008002063
:107ae800014b187c704700bf40080020014b83f809
:107af8003000704740080020014b93f8330070476e
:107b080040080020014b5888704700bf40080020fb
:107b1800014b9888704700bf40080020024b0022a4
:107b28005a809a80704700bf40080020014b987423
:107b3800704700bf40080020084b1b7cc21a002a6f
:107b4800b8bf5242c72a04dc984294bf00200120e3
:107b5800704798428cbf00200120704740080020e1
:107b68000a4b1b7c98420fd0c21a002ab8bf524257
:107b7800c72a04dc984294bf00200120704798422d
:107b88008cbf00200120704701207047400800206a
:107b98002de9f84f364bdff8e090d3f8f440354d37
:107ba80006460f4690464ff0000a9b462378062b60
:107bb8001dd06378022b1ad056ea070309d0d4e9fe
:107bc80004239f4208bf964211d1607efff7c8ff89
:107bd80068b1a37eb8f1000f11d013f0040f06d0de
:107be80099f834300f2b3ed8227e9a423bd3dbf8eb
:107bf800f83028349c42d9d35046bde8f88f13f0aa
:107c0800020fece7637e9af8192093420bd0991a79
:107c18000029b8bf4942c72920dc93428cbf002302
:107c28000123002be3d1dbf8f430dbf8fc10e21a77
:107c3800aaeb0303d210db106a436b4301ebc202c9
:107c480001ebc30312791b79d21a1932cfdb49f041
:107c580013fb10f0080f08bfa246c8e7934294bf71
:107c680000230123dde7baf1000fcbd1a246bee71e
:107c7800c04e0020cdcccccc4008002010b5154c0f
:107c8800d4f88c310122d3e90001fff781ffc4f851
:107c98009001a8b1002384f801320f4ac388938762
:107ca800a4f8d83150220d4bc4f8e03184f8d02123
:107cb80004f5e47029f056f8292384f8003210bd41
:107cc800d4f88c31c32283f82b200a20fdf7c4fc9a
:107cd8002223f2e7c04e0020400800208d860001d4
:107ce80010b50f4c99b9d4f89c3103f51173c4f849
:107cf8009c310c4bc4f8a431012384f8a03104f55d
:107d0800ca7038f0d7ff2d2384f8003210bdd4f89c
:107d180090319a7e6ff382029a76bde81040ade703
:107d2800c04e0020317d00010f4b10481b7a13f024
:107d3800080f11d1022380f8b031d0f89031da88d9
:107d48009b88a0f8b8310a4ba0f8b221c0f8c0311e
:107d580000f5d47029f00cb8d0f890319a7e6ff302
:107d680082029a768ae700bf40080020c04e0020b1
:107d780041b0000182e70b4a92f801320133dbb2cd
:107d8800022b82f8013206d9d2f890319a7e6ff32d
:107d980082029a7672e7282382f800320320fdf7e0
:107da800adbd00bfc04e002010b50378174cd4f805
:107db8008c2143b182f82b300a20fdf74dfc222399
:107dc80084f8003210bd117b032915d1104b1b7aa2
:107dd80013f0080304d1c4f89c31bde81040cae789
:107de800812384f8d0310b4bc4f8d43104f5e47006
:107df80028f06fff2b23e3e782f82b30222384f847
:107e080000320a20bde81040fdf726bcc04e002015
:107e180040080020217e0001037810b5094c2bb9d9
:107e28008368c4f89c31bde81040a4e7d4f88c21dd
:107e38000a2082f82b30fdf70ffc222384f8003249
:107e480010bd00bfc04e0020f8b58b79012b0e463f
:107e5800174652d18c68cd6826f0f2f9d0e9002394
:107e68009d4208bf944248d1364d95f80032a3f19f
:107e78002c02012a2c464bd805f5ca7038f044ff6d
:107e8800b6f819204ff6ff739a4238d0f37e002bcc
:107e980035d1d5f88c112c4d81f82b306a87d4f860
:107ea800902191882980d17885f838101370137e35
:107eb800507e0133dbb20f2b88bf0f236b72fff7a5
:107ec80001fe7b682bb1d4f8902119685b68d360f8
:107ed8009160532384f8d0316b8fa4f8d8311b4bb1
:107ee800c4f8e0311a4828f03dff2e2384f8003208
:107ef80095f83810242038f0c7fb0120f8bdd4f8d5
:107f080090319a7e6ff382029a76fff7b7fef4e714
:107f1800da2bf2d10c4a92f82e30022bedd1b6f8ba
:107f280019305387a5f8d8315322084bc5f8e031ea
:107f380085f8d02105f5e47028f014ff312385f881
:107f48000032dae7c04e0020400800208d8600018c
:107f58008850002010b51d4cd4f88c310022d3e98c
:107f68000001fff715fec4f8900108b3002384f858
:107f78000132174b93f8372084f8d121c27884f85e
:107f8800d021022284f8d221c2881b7aa4f8d421f5
:107f9800828884f8e0310f4bc4f8e431a4f8d82182
:107fa80004f5e47028f08cfe232384f8003210bd19
:107fb800d4f88c31ca2283f82b20222384f800328b
:107fc8000a20bde81040fdf747bb00bfc04e0020a7
:107fd80040080020c5930001034b00229a709a8044
:107fe800da801a81704700bf283b012008b5fff7e7
:107ff800f3ff38f0a5fe044b586303f13800bde8e1
:10800800084038f057be00bf283b012000487047a1
:108018002a3b0120044b054a1a64012283f84420b4
:10802800034a9a64704700bf283b0120a075e90005
:10803800f57f000108b538f083fe064b5b6bc01a6c
:10804800054b98428ebfff204ef66023b0fbf3f03d
:10805800c0b208bd283b01209f75e900037b03f0ef
:10806800fd02042a10b5014603d1bde81040fef711
:108078000eb8012b01f10801104c0fd104f5517015
:1080880044f0daf994f84033162b15d1172384f805
:1080980040331320bde81040fdf7deba04f5c47084
:1080a80044f0caf994f80032da2b05d10a20fdf71a
:1080b800d3fa212384f8003210bd00bfc04e00203f
:1080c80008b50146084844f0b7f9084b93f8b920b9
:1080d800e62a07d1112283f8b9200c20bde8084010
:1080e800fdf7baba08bd00bf384f0020c04e0020c7
:1080f80038b5174b93f8b8101c46e9b9022a1cd1b9
:10810800a3f8a800012384f8ad3000220023c4e9b5
:108118002823104b104893f8203284f8aa30002303
:1081280084f8ab3001250d4b84f8ac50c4f8b0305e
:10813800fff7c6ff84f8b85038bd032ae5d1002000
:1081480000210122c3e9280183f8ad2038bd00bf12
:10815800c04e0020808e0301584f0020c5700001da
:1081680010b50e4c94f8b830b3b900220023c4e916
:1081780028230b4b84f8ac0093f8203284f8aa30fb
:10818800084bc4f8b03084f8ab1004f19800fff73e
:1081980097ff012384f8b83010bd00bfc04e0020ff
:1081a800808e0301c570000110b4094c094ad4f847
:1081b800f430c31adb105a43d4f8fc305df8044b92
:1081c80003ebc2039a7961f302029a71fcf792bb3e
:1081d800c04e0020cdcccccc10b5074c94f87c32e6
:1081e800022b08d0fdf78cf8012384f87c32bde817
:1081f8001040fef709bb10bdc04e002008b501466f
:10820800084844f019f9084b93f870218e2a07d1d1
:108218008f2283f870210f20bde80840fdf71cbab3
:1082280008bd00bf2c500020c04e00200c4b30b1c0
:108238002830d3f8f820904204d300207047d3f8b0
:10824800f400f6e7037803f0fb03012b05d143782c
:10825800022b02d183888b42f0d12830ebe700bf94
:10826800c04e002010b50b4a0b49d2f8f430898f64
:10827800d2f8f8201c78062c05d09c88844202d1bc
:10828800dc888c4203d028339342f3d3002318466a
:1082980010bd00bfc04e0020400800202de9f0416d
:1082a800264a274fd2f8ec50d2f8e830eb1a92f869
:1082b8000051013505eb23150e46adb204464ff6c5
:1082c800f678631e9bb2434588bf01247b8fa34287
:1082d80014d02046fbf7a8ff20bb2046fff7c2ffbb
:1082e80038b1d0e90201d6e90023994208bf90428b
:1082f80009d12046bde8f0811d46e2e7304625f069
:10830800abff0028e5d101346b1ea4b29bb2002d4f
:10831800f2d10c4b43f206021a804ff6ff7447f075
:1083280049fce6e703789b07edd4d0e90201d6e9da
:108338000023994208bf9042e5d1cee7c04e002005
:10834800400800209036002010b586b0cde9002303
:108358002023adf80c300df10a03adf80a000493a0
:108368000446002303a91e20059338f08df9059bc8
:1083780033b1bdf80a006946fff790ff06b010bd9b
:108388000b4b93f8312072b993f82f30022b0cd194
:108398004ff6f7739c4204d948f06eff80b26946e5
:1083a800eae72046fbe72046e8e74ff6ff70e5e7f7
:1083b8004008002038b501220546d0e90201fcf743
:1083c80042fb0446d8b100230375aa7e437862f3c2
:1083d800c3034370ab884382d5e902234ff6fe708e
:1083e800fff7b2ff2082d5e90223c4e90223012363
:1083f800637523700420bde83840fdf77fba38bda7
:1084080010b5164c18b394f85231462b1fd104f20c
:108418002d1398421bd1124b93f82e30022b0ed0fd
:10842800b4f85001fcf70af848b1827e6ff3c30232
:108438008276fff7bfff472384f8523110bdaa2385
:1084480084f852310220bde81040fdf705b9054b0c
:1084580043f283121a8047f0bffbdce7c04e0020ce
:108468004008002090360020f7b54e4c227812f0d4
:10847800400f0f46254609d094f85221aa2a07d062
:10848800b4f85021824201d184f8531103b0f0bdf1
:10849800454ea5f85001728f85f85311824296f81f
:1084a8002e2051d1002af1d0022a03d096f82f307d
:1084b800022b29d0d6e910233c49c1e90023032324
:1084c80085f82431002385f825310df1070129208d
:1084d80031f09cfe9df8072001230ab185f825316b
:1084e80096f8382085f826319340c5f84831082396
:1084f80085f84c312e4bc5f82c31452385f852317f
:108508002a48fff7abfdc1e7012abfd125f098fe45
:10851800d0e900234ff6fe70fff716ff738f8342f2
:10852800f4d04ff6f7739842b0d8532385f820312a
:10853800204bc5f830314423a5f8280185f852317d
:108548001a4828f00ffca1e7022a9fd0d1b10d22ca
:10855800194b84f82e21c4f81c314ff6fd72002304
:10856800a4f82021a4f822014ff6ff7284f82831dc
:1085780004f58c704623a4f8242184f85231fdf7c1
:10858800f9fc83e7fbf75aff00283ff47faf472247
:1085980084f85221827e67f3c3028276fff70affce
:1085a80074e700bfc04e002040080020d84f0020cc
:1085b800e9560001c171000109840001014b002145
:1085c800588f51e74008002008b50d4b1b78db0792
:1085d80007d5537d042b04d11369597819b10d2996
:1085e80009d0012008bd58884ff6f7739842f8d88b
:1085f800fcf77af8f5e700215888fff735fff0e730
:10860800c04e002010b51e4c94f85231aa2b36d11a
:10861800d4f8f430d4f8f8201978062902d0997ed5
:1086280009070fd428339342f6d3d4f8e830d4f8a6
:10863800ec101a7802f00302032a18d010338b4288
:10864800f7d310bd9a88a4f850219a7e6ff3c3021d
:108658009a760121b4f85001fff706ff94f85231d9
:10866800aa2b0cd10220bde81040fcf7f5bf5a88b0
:10867800a4f850211a786ff341021a70e9e710bd87
:10868800c04e0020037873b5624c53b1d4f88c21e6
:108698000a2082f82b30fcf7dfff222384f800320f
:1086a8003ae094f80032243b112b35d8dfe803f088
:1086b8004e566a343439463434347c86929e343685
:1086c8005f09d4f88c311b7b032b23d1524d95f8cd
:1086d80031307bb96a8f4ff6f7739a4202d948f066
:1086e800cbfd68876e8f25f0abfd01463046fff75e
:1086f800d5fd6887532384f8d0316b8fa4f8d8311f
:10870800332384f800324548454bc4f8e03128f05b
:1087180029fb01e0fff71efc02b070bdfff7aefabf
:10872800fae7d4f890313c4adb7882f838300022f6
:1087380084f8d83184f8d0212a23e2e7452384f845
:10874800d031384bc4f8d8312423dae7462384f8eb
:10875800d0310f2384f8d8312523d2e78323324937
:1087680084f8d031082031f051fd3423c9e7522371
:1087780084f8d031284b1b7ac3f3c00384f8d8316e
:108788002623bee7244b25481b7a13f0080f14bf95
:108798006ff07f430023c4f8d031244bc4f8d431a0
:1087a80028f0dafa272379e74b2384f8d031d4f874
:1087b80090319b88a4f8d8312f23a2e74a2384f864
:1087c800d031d4f89031d3e90201174bc3e9000145
:1087d800302396e7d4f88c31002283f82b200a2026
:1087e800222384f80032fcf737ff95e70a4b5b8faa
:1087f800adf8043001a810238df806300cf0dcfb2e
:10880800d4f8883123b10a20fcf726ff212345e755
:10881800da2343e7c04e002040080020885000209b
:108828008d8600015e08002098500020b17d00016f
:108838000c4b5b8f834210b5044603d1bde8104052
:1088480025f0febcfff70efd28b1d0e90223134343
:1088580001d0083004e02046fbf7e6fc0028f8d1f8
:1088680010bd00bf40080020f8b5c4691b4d06467e
:108878002046d5f87c73fcf721f92278012363f3ad
:108888000102a371164b22701b886380637843f042
:108898001003637025f0d4fc90e80c0063616378e2
:1088a800226143f0080363706088fff7c1ff90e816
:1088b8000c00e3600b23a26023763b7963767a7918
:1088c800a37e62f300036ff34703a3761b2386f8a6
:1088d8003030032385f87833f8bd00bfc04e002040
:1088e800400800202de9f0414ff6ff77c46907855d
:1088f8008b7880f88530064620460d46fcf7def872
:108908002378e770012262f3010323706ff00303f9
:10891800a370eb7aa3716b7be371a888a080fff743
:1089280087ff50b3637843f01003637090e80c003e
:108938004ff00808a260e360f36908f10807012214
:10894800da55dc196978637801f0600003f0600398
:108958006ff3451320286370dbb210d143f0400356
:108968006370ab7aa3702b89a4f80330ab7863717a
:10897800063786f83070bde8f0818046dce76ff393
:108988008613637038b911f0100fdbb218bf0222da
:1089980062f3c403e4e72889fff74aff0028e0d020
:1089a800637843f02003637090e80c0008f1100727
:1089b800c4f80620c4f80a30d3e72de9f04f85b093
:1089c800884601925e4a0f9e92f82e109df8384014
:1089d8009df840504ff6fe7b022907469a46a6f8b6
:1089e80000b091461ed1118831801bb9138883428b
:1089f80008bf012503238df80c308df80d50fe2398
:108a08008df80e309df80c30002063f307009df8b8
:108a18000d3063f30f209df80e3063f3174005b057
:108a2800bde8f08f2bb13cb34ff6ff7333800823ba
:108a3800e1e74ff6f7729042f6d8fff713fc0446c9
:108a4800d0b1827ed30709d402238df80c300123dc
:108a580037808df80d308df80eb0d3e70278052aef
:108a680002d04278022a07d104238df80c30012362
:108a780037808df80d30c2e751463846fbf718feaf
:108a8800002855d042883280017990f806b048070e
:108a980011d5b9f83a00404501d10b073bd50a2159
:108aa8003388984502d0019a93423ad14ff6fe7323
:108ab8003380012135e00621baf1000f01d1974238
:108ac8002bd05d4528bf5d46edb2002ce8d00629c5
:108ad80034d11c481c4ad0f8f430e31adb105a434e
:108ae800d0f8fc3003ebc2039879c0f3c2072046e4
:108af800fbf78efc99f83530b842b8bf38465b456d
:108b080028bf5b46dbb2984209d2a38833808346ec
:108b180004210125c4e70721cee70125d5e700296f
:108b2800bed18df80c108df80d5094e72146f8e76a
:108b38004ff0fe0b002cf9d00146cae70721afe73a
:108b480040080020c04e0020cdcccccc2de9f0410f
:108b58003c4fc469d7f8b06205462046fbf7aeff24
:108b6800337c1bb1738aa380337de371237830890a
:108b78006080012262f301032370637843f01003dd
:108b880063704ff6f773984245d8fff751fe804659
:108b9800002840d0637843f00803637025f050fb49
:108ba80090e80c002261636198e80c00a260e36021
:108bb800182204f1180385f8302003221a70b27db8
:108bc8005a7072895a8095f88630102b02bf95f832
:108bd800873043f0020385f88730b0892885f38908
:108be800a5f880304ff6f773984222d8fff73afb82
:108bf800012385f8323028b1837edb0702d40523b0
:108c080085f8323095f83030043385f83030212338
:108c180087f8cc3214e063786ff3c303637025f0f0
:108c28000ffb90e80c00a260e360102204f110032f
:108c3800c1e7054be179588ffcf700fa0228e1d12a
:108c4800bde8f081c04e0020400800202de9f8431f
:108c58004b7807466ff3c303c8884b7001253885e6
:108c680087f83250fc698846fff7e2fd0646204641
:108c7800fbf724ff2378594a65f30103237098f81a
:108c88000c30a371538fa3803b8d6380637843f0ce
:108c9800100363709146002e00f08380dbb243f02e
:108ca8000803637025f0ccfa90e80c002261636138
:108cb80096e80c000826a260e360f96998f801209c
:108cc80010368c1902f060026378a2f1200042424b
:108cd800424103f0f00362f386136ff3c713637026
:108ce80002238b5598f80a30a370b8f80450b8f8e6
:108cf8000830a4f80350a4f80530b8f80600fff7c8
:108d0800b1fa002862d099f830203549dff8d4e06c
:108d1800002a4dd0d1f8f420831adb10d1f8fc20ba
:108d28000efb03f302ebc3039979c1f3c201fbf70e
:108d38006ffb8842b8bf084698f80330184480b2e1
:108d4800fe2828bffe20e0712846fff771fd6378f2
:108d580000283dd043f01003637090e80c00012513
:108d6800a260e36063786ff3451363705b0611d408
:108d7800b4f80500fff75cfd60b16378013543f096
:108d8800200390e80600637004ebc50344f835102f
:108d98005a60edb2681c06ebc00087f83000bde8e9
:108da800f88325f04dfa90e80c00a260e36084e7b0
:108db800d1f8f420831adb10d1f8fc200efb03f362
:108dc80002ebc3039879c0f3c200b5e70720b3e705
:108dd80060f3041363700546c4e700bf4008002031
:108de800c04e0020cdcccccc2de9f341c779867993
:108df80000230137ffb243726d4bc77193f82e30d1
:108e0800022b05460c4600f0ad800e2e51d8dfe847
:108e180006f0b3b3082727303055555550505050f9
:108e2800b30048f029fac0f30b0068810126022438
:108e3800eb79b3423dd8688925f01cfa400968816e
:108e480029465c4843f0f8fa5b4890f85030002b0c
:108e58005dd1012380f85030543037f02bff56e0b5
:108e6800012f34d0032e24d141f602734381042606
:108e7800dde7062e12d1012f1bd8012f15d148f09e
:108e8800fbf940f6627280b2b0fbf2f302fb130307
:108e98009bb23f335b006b810326c8e750f8343c34
:108ea80090f84d209b789a42e6e724b1237813b9cd
:108eb800eb7101242be041f60273ece7b0f84800af
:108ec800fff7d0f9092e804603d10723ab710024a0
:108ed8001de0082e1fd1002323706b69002b65d17c
:108ee800022f63d8ab79082b25d12846fbf7e4fa83
:108ef800314badf8040093f8d432c0b298421ad27c
:108f08009df80500fcf7caff68b10324ec71204600
:108f180002b0bde8f081002cdfd02378002bdcd133
:108f28000823ab71d9e7ee79022e04d143f6095331
:108f38006b8104247ce7b8f1000f0dd098f801305c
:108f4800022b09d198f8003003f0fb03012b03d161
:108f580000236b810226ece748f08ef9c0f30a0083
:108f68006881f7e70e2e4ff00101a2d801fa06f347
:108f780044f2833213429cd0002cc8d02378002bb3
:108f880097d0012e10d00e2e0cbf02260126e12b01
:108f980000d1013648f070f9ea794ff480639340c4
:108fa800013b1840688142e70326f3e70324aee754
:108fb80040080020284f0020c04e002030b50a4a43
:108fc800d2f8f430d2f8f8201c78062c05d0d3e972
:108fd80002458d4208bf844203d028339a42f3d811
:108fe8000023184630bd00bfc04e0020f7b51f460d
:108ff8004ff6f77398420546164627d856ea0703f0
:1090080024d0fff715fc58b1d0e90023bb420abfb2
:10901800b2420124002424b10220fcf71dfb00e029
:10902800044630463946fff7c9ff40b1837e858044
:1090380064f3c303837684f0010003b0f0bd0094a9
:1090480032463b462846fbf717fcf4e70020f4e7d6
:109058002de9f04d1746527d072a884614d93e69f6
:109068007378c3f34011c3f300140c44e4b2611cd9
:10907800b2ebc10f08d3da0609d4b178b6f8030009
:10908800fbf7c6fa0546a8b90020bde8f08d364bb7
:109098005a8fb6f803309a42efd1d6f808a0d6f81e
:1090a8000cb025f0cdf8d0e900239b4508bf9245c8
:1090b800ead1e2e7f379c2789a42e5d9c3707378c6
:1090c8009b060cd5013ce4b2012cddd8013406eb3b
:1090d800c404b6f8050022686368fff787ff69785b
:1090e800eb78fa8a01f06001a1f120004142414188
:1090f8002889fbf702fb1c4bb6f803005a8f824203
:109108001ed07378db0603d5b268f368fff76effed
:1091180098f80630012b8cbf03f1ff3301232b7322
:109128006b7843f004036b70104b93f8a422002a69
:10913800aad1932283f8a4220520fcf78dfaa3e78d
:10914800286918b100220274fa8a42829b7c002b9b
:109158009ad010b1c368103098476b78002262f338
:10916800c3032a616b708fe740080020c04e0020bf
:1091780037b5054628b9244b43f211121a8046f038
:1091880019fdd5e90023013308bfb2f1ff3f02d131
:10919800002003b030bd284625f05ef888bb02a940
:1091a8000022002361e902232a2031f02ff8d5e9b3
:1091b8000001dde90023994208bf90420ed1134c0b
:1091c8002b2004f14c0131f021f8b4f84c204ff673
:1091d800f7739a4202d804f14c00dae7d5e90001a6
:1091e800fff7ecfe30b182884ff6f7739a4201d848
:1091f8000430cee72846faf7fdff0028c8d0023031
:10920800c7e70348c5e700bf90360020283b012088
:109218007a08002082b0fc238df80030af238df847
:10922800013060238df8023011238df803300723b5
:109238008df8043001238df8053000231df8031044
:109248008142dab203d90133062bf7d11a46501cf2
:10925800c0b202b0704738b50a4bd3f8f440001bcf
:10926800094cc0106043d3f8fc4004ebc004084626
:1092780021711546fff7ceffa379657160f3c50329
:10928800a37138bdc04e0020cdcccccc38b50f4b27
:10929800d3f8f440001b0e4cc0106043d3f8fc40d8
:1092a80004ebc004154623796bb1032010fb0310af
:1092b800c0f387002071fff7adffa379657160f3f4
:1092c800c503a37138bd0846f4e700bfc04e0020af
:1092d800cdcccccc4b682de9f04104460d46002b93
:1092e80031d12b68002b42d1e88afef7bbff064636
:1092f800002852d1304b93f830609846002e57d052
:109308006378d90730d462884ff6f7739a422bd81e
:10931800a7883846fef7a6ff38b10378012b45d059
:109328005a1f53425341002b44d198f83430a27944
:109338009a4234bfd343db43dbb2ea8a0021384682
:10934800fbf7dbf910e0027802f00302012a03d1ef
:109358000a691278062ac4d01a68a0885b68fff7e1
:1093680045fe0028bdd100263046bde8f081627870
:10937800d007f8d460884ff6f7729042f3d80e4ab7
:10938800a188528f9142afd09042add01a685b68e5
:10939800fff72cfe0028a7d1e5e795f91920297ecb
:1093a800fff774ff3046fbf7a5faa3e73346bae7a1
:1093b8000126d9e71e46d7e74008002070b5867c0d
:1093c800294c05465eb1022e3dd8d4f890319a7edc
:1093d8006ff341029a76bde87040fef7bbbdd4f842
:1093e8009031224ad98891870188518799881180bc
:1093f800d0e90201c3e9020194f8d01182f83810cb
:10940800197e1e700131c9b20f2988bf0f21587efd
:109418005172fef757fbd4f8900195f91120297c79
:10942800fff734ff452384f8d031114bc4f8d83105
:10943800242384f800320f4bc4f8e0310e48bde80d
:10944800704027f08fbc94f801320133dbb2012b56
:1094580084f80132b9d804f5e47027f031fc2323ed
:1094680084f8003270bd00bfc04e002040080020c4
:109478005e0800208d86000188500020012b2de910
:10948800f84f07468a4690469b4600f0a780564b01
:10949800b2f803005b8f834200f08780fef7e2fe9c
:1094a800002800f09b80057805f0fb05012d40f0b1
:1094b80095804378022b40f091809af81800fff7c6
:1094c800a9fe494b93f8302004469946cab1baf828
:1094d8001600fef7c7fe014698b1faf799ff434a0e
:1094e800d2f8f430c91a424bc9104b43d2f8fc10d9
:1094f80001ebc3018e79c6f3c20686423446b8bf73
:10950800044699f83630a34260d998f8056098f86f
:109518000210b8882644b6b2fe2e28bffe26fbf7f6
:1095280077f8f6b20446002843d12846fbf78cfeac
:10953800044600284ad043786bf34613437098f8e2
:10954800042098f8033043ea022303813b797a79af
:1095580043ea0223838098f802308372bb79013b87
:10956800c372fb7943736b1ec37005b3faf7e7fe4a
:109578002073a67099f83030baf81620e28023b12b
:1095880033460021b888fbf7b8f8184a637805b362
:1095980043f00403637092f8a432bbb9932382f8b2
:1095a800a4320520fcf758f810e0012585e70120d2
:1095b800dee74378c3f341135b4507d1b8f80320ce
:1095c80003899a4202d18378b342d2d80020bde8f9
:1095d800f88f43f0010365f34103dbe7bb79012b07
:1095e800f4d9002569e700bf40080020c04e0020dc
:1095f800cdcccccc70b5537d052b0c46154630d957
:10960800194b93f82e30022b2bd04b781669d906bc
:1096180007d5137d0f2b24d9a268e368a088fff72c
:10962800e5fc73785a061ad413f0180f19d1b6f856
:1096380003004ff6f772904213d89b0608d56b7d4e
:109648000d2b0ed9d6f80620d6f80a30fff7cefc37
:109658000223324629462046bde870400ee7012322
:10966800f7e7002070bd00bf4008002000487047a1
:10967800b44f0020064ad2f8f430c01a054bc01087
:109688004343d2f8fc0000ebc3000079704700bfe9
:10969800c04e0020cdcccccc064ad2f8f430c01a4b
:1096a800054bc0104343d2f8fc0000ebc30090f90f
:1096b80005007047c04e0020cdcccccc10b5144668
:1096c800fff77cfc034638b1817ec1f300101cb162
:1096d80041f01001997610bd10bd50b1431e0d2bfd
:1096e8004ff0010394bf03fa00f018463c23584397
:1096f80070470a2070472de9f047c54d95f83c3072
:10970800712b88b0044640f079811023adf81430ed
:109718000023079390f82c30066b06900e2b40f22e
:109728006d813378002b40f06981d6f80320d6f894
:10973800073012f1ff3243f1ff334ff0ff316ff082
:109748000200994208bf9042c0f05881af6b2fb910
:10975800b04b43f2da021a8046f03efa97f825e059
:1097680097f82630734539d9ba6a02eb0e137ab3e3
:109778004ff0000c4ff0010a934200f21a81bcf13d
:10978800000f2bd1227e1a72a27fc2f30302da7273
:10979800a27fc2f303121a73e27fd6f80310d2092c
:1097a8005a73d6f807205a60b2781960c2f380015c
:1097b800d209da7372789973c2f303025a72727813
:1097c8000ef1010ec2f303129a7287f825e005e044
:1097d800904b43f2db021a8046f0ecf973788e4e18
:1097e80096f83320b2eb131f40f0088196f8322028
:1097f80003f00f03934240f0018105a91e2036f0c3
:1098080043ff079b002b40f0f98002a93320276b08
:1098180030f0fcfcdde9028918f1ff3249f1ff3331
:109828004ff0ff316ff00200994208bf904208d311
:10983800d7f80730d7f80320994508bf904540f07e
:10984800dd800df10701182030f0e0fc9df80730ad
:109858004bb102a9172030f0d9fca289bdf8083015
:109868009a4240f0cb8096f82e80b8f1020f40f073
:10987800bd8097f90230002b80f2c080d5f8f4e063
:10988800d4f83090d5f8f8a04ff0000c8df808c047
:1098980077463b78062b00f0b480228abb889a4230
:1098a80040f0b080d7e90423d9f80710d9f80300ad
:1098b8008b4208bf824240f0a580ba4504d8bcf16b
:1098c800000f00f09b806746544be17fd5f8fc50b1
:1098d800a7eb0e0e4feaee0e03fb0efe3b78062baf
:1098e80004bf03233b7081f04003c3f380137b70f4
:1098f800bb7803f0f00343f00a0303f0bf036ff3f0
:10990800c713bb70237efb70238abb80a389fb80af
:1099180000220023c7e90223d9f80730d9f8032029
:109928007b6199f802303a61c3f3c3033b7699f837
:109938000e307b76bb7e96f85400c90943f00103cc
:1099480061f3410300226ff38203bb76ba8305eb10
